:020000040000FA
:100000000C9462000C948A000C948A000C948A0070
:100010000C948A000C948A000C948A000C948A0038
:100020000C948A000C948A000C948A000C948A0028
:100030000C948A000C948A000C948A000C948A0018
:100040000C94CB030C948A000C948A000C948A00C4
:100050000C948A000C948A000C948A000C948A00F8
:100060000C948A000C948A000000000023002600F3
:10007000290000000000240027002A0000000000E2
:10008000250028002B0004040404040404040202D4
:100090000202020203030303030301020408102007
:1000A0004080010204081020010204081020000012
:1000B0000008000201000003040700000000000027
:1000C00000008A0511241FBECFEFD8E0DEBFCDBFF0
:1000D00011E0A0E0B1E0ECE6F0E102C005900D9285
:1000E000A632B107D9F721E0A6E2B1E001C01D9226
:1000F000AF34B207E1F710E0C2E6D0E004C02197C8
:10010000FE010E942E08C136D107C9F70E941504CE
:100110000C9434080C940000833081F028F4813072
:1001200099F08230A9F008958730A9F08830C9F09D
:100130008430B1F4809180008F7D03C08091800075
:100140008F7780938000089584B58F7784BD08955C
:1001500084B58F7DFBCF8091B0008F778093B00006
:1001600008958091B0008F7DF9CF1F93CF93DF93D7
:10017000282F30E0F901E255FF4F8491F901E6564E
:10018000FF4FD491F901EA57FF4FC491CC23A9F056
:10019000162F81110E948C00EC2FF0E0EE0FFF1F54
:1001A000E458FF4FA591B4918FB7F894EC911111D9
:1001B00008C0D095DE23DC938FBFDF91CF911F91D4
:1001C0000895DE2BF8CFCF93DF9390E0FC01E65645
:1001D000FF4F24918A579F4FFC0184918823D1F0CF
:1001E00090E0880F991FFC01EE58FF4FA591B49144
:1001F000FC01E458FF4FC591D49161110EC09FB727
:10020000F8948C91E22FE0958E238C932881E22341
:10021000E8839FBFDF91CF9108958FB7F894EC9159
:10022000E22BEC938FBFF6CFAF92BF92CF92DF92CB
:10023000EF92FF920F931F93CF93DF936C017B019B
:100240008B01040F151FEB015E01AE18BF08C0172C
:10025000D10759F06991D601ED91FC910190F0819F
:10026000E02DC6010995892B79F7C501DF91CF9162
:100270001F910F91FF90EF90DF90CF90BF90AF90C4
:100280000895089590E080E0089560E089E00E947C
:10029000B50060E08AE00E94B50060E08BE00C945D
:1002A000B500FC0101900020E9F73197AF01481B30
:1002B000590BBC0187E391E00C9414018F929F923B
:1002C000AF92BF920F931F93CF93DF93CDB7DEB75B
:1002D000A1970FB6F894DEBF0FBECDBF19A2423072
:1002E00008F44AE08E010F5D1F4F842E912CB12C33
:1002F000A12CA50194010E94F807E62FB901CA01BB
:10030000EA30F4F4E05DD801EE938D01232B242B29
:10031000252B79F790E080E0109719F0CD010E942D
:100320005101A1960FB6F894DEBF0FBECDBFDF918D
:10033000CF911F910F91BF90AF909F908F90089594
:10034000E95CE1CFCF93DF93EC0160E08E810E9406
:10035000B50061E08E810E94B50060E08E810E9450
:10036000B5008BE891E00197F1F7DF91CF91089507
:10037000CF92DF92EF92FF920F931F93CF93DF9371
:100380006C017C0187E0E80EF11CD0E0C0E0062F94
:1003900010E0B8010C2E02C0759567950A94E2F73B
:1003A0006170F70181917F010E94B5002196C430F0
:1003B000D10579F7C601DF91CF911F910F91FF9081
:1003C000EF90DF90CF900C94A201CF92DF92EF924A
:1003D000FF920F931F93CF93DF93EC01F62E642FC0
:1003E0008C810E94B5008D818F3F19F060E00E94E2
:1003F000B5000F2D10E08F8584FF25C06E0187E0CA
:10040000C80ED11CF12CE12CB8010E2C02C0759540
:1004100067950A94E2F76170F60181916F010E947D
:10042000B500FFEFEF1AFF0A88E0E816F10461F764
:10043000CE01DF91CF911F910F91FF90EF90DF9050
:10044000CF900C94A201B80184E0759567958A95C8
:10045000E1F7CE010E94B8016F2DCE01DF91CF915F
:100460001F910F91FF90EF90DF90CF900C94B80107
:1004700040E0682F87E391E00C94E50181E00E9461
:1004800038028BE39FE10197F1F70895CF93DF9353
:10049000823029F4909146019860909346018093B0
:1004A0004A0110924B0180E480934C0180E18093DB
:1004B0004D0180E580934E0161E080913B010E94F7
:1004C000E30080913C018F3F19F061E00E94E3005E
:1004D00061E080913D010E94E300C7E3D1E09E010D
:1004E000275331408091460184FD0BC084E090E0A9
:1004F00021962817390744F461E08E810E94E300B9
:10050000EECF88E090E0F4CF8BE39DE00197F1F728
:1005100060E080913B010E94B50060E080913D0168
:100520000E94B50080913C018F3F19F060E00E946D
:10053000B5008091460184FD34C063E087E391E01B
:100540000E94B801CBE4D6E4CE010197F1F763E055
:1005500087E391E00E94B8012197F1F763E087E318
:1005600091E00E94B80183E592E00197F1F762E023
:1005700087E391E00E94B8018091460180620E9469
:10058000380284E0809347018CE00E9438020E9488
:100590003E0282E08093480186E0DF91CF910C9487
:1005A000380280620E9438028BE496E40197F1F7EA
:1005B0008091460180620E94380283E592E00197B3
:1005C000F1F78091460180620E943802D5CF41E068
:1005D0000E94E50181E090E008954F925F926F9252
:1005E0007F928F929F92AF92BF92CF92DF92EF92C3
:1005F000FF920F931F93CF936B017C01742EAC017C
:100600009B010E94DF07882399F08CE091E0CF9155
:100610001F910F91FF90EF90DF90CF90BF90AF9020
:100620009F908F907F906F905F904F900C945101AE
:1006300046015701E894B7F82FEF3FEF4FE75FE728
:10064000C501B4010E94DF0781110DC02FEF3FEFFC
:100650004FE75FE7C501B4010E94150618161CF4A8
:1006600080E191E0D4CF2FEF3FEF4FE75FE4C70188
:10067000B6010E946D0718161CF484E191E0C7CF03
:100680002FEF3FEF4FE75FECC701B6010E94150661
:1006900087FDF3CF20E030E0A901C701B6010E9439
:1006A000150610E000E087FF0CC041E06DE287E333
:1006B00091E00E94E501F7FAF094F7F8F09401E078
:1006C00010E0C0E060E070E080E09FE37C1641F065
:1006D00020E030E040E251E40E941A06CF5FF6CFFE
:1006E000A70196010E94A9054B015C010E948C069E
:1006F0002B013C014AE00E945E01080F191FCC2328
:10070000C9F1C301B2010E94BB069B01AC01C50146
:10071000B4010E94A8054B015C0141E06EE287E351
:1007200091E00E94E5010F5F1F4FC15018F120E0DA
:1007300030E040E251E4C501B4010E9472072B0190
:100740003C010E948C064B01B12CA12C4AE0C50152
:10075000B4010E945E01080F191FC501B4010E9477
:10076000BB069B01AC01C301B2010E94A8054B016D
:100770005C01DBCFC801CF911F910F91FF90EF90EB
:10078000DF90CF90BF90AF909F908F907F906F90B1
:100790005F904F9008951F920F920FB60F92112401
:1007A0002F933F938F939F93AF93BF938091330188
:1007B00090913401A0913501B09136013091320110
:1007C00023E0230F2D3758F50196A11DB11D20936D
:1007D00032018093330190933401A0933501B0939B
:1007E000360180912E0190912F01A0913001B0919E
:1007F00031010196A11DB11D80932E0190932F010F
:10080000A0933001B0933101BF91AF919F918F912F
:100810003F912F910F900FBE0F901F90189526E8D3
:10082000230F0296A11DB11DD2CF789484B58260AA
:1008300084BD84B5816084BD85B5826085BD85B584
:10084000816085BD80916E00816080936E00109202
:10085000810080918100826080938100809181007D
:10086000816080938100809180008160809380000E
:100870008091B10084608093B1008091B00081606C
:100880008093B00080917A00846080937A00809198
:100890007A00826080937A0080917A0081608093F0
:1008A0007A0080917A00806880937A001092C1006B
:1008B00082E00E94460260E08EE00E94E30060E079
:1008C00088E00E94E30061E089E00E94E30061E0CB
:1008D0008AE00E94E30061E08BE00E94E30092EA7C
:1008E000292E90E0392E2EE8822E20E0922E02E072
:1008F00010E030E0A32E30E0B32E8FB7F894409094
:1009000033015090340160903501709036018FBFF3
:10091000411451046104710441F410922A011092AF
:100920002B0110922C0110922D0120E420937C00C9
:1009300080917A00806480937A0080917A0086FDAD
:10094000FCCF6091780070917900072E000C880B25
:10095000990B0E94BD0620E030E040EA50E40E947E
:10096000720720E030E040E85AE30E94720720E07E
:1009700030E048EC52E40E9472076B017C01E6EB28
:10098000F0E08491F101D491F401C491CC2309F4F5
:1009900086C081110E948C00EC2FF0E0EE0FFF1F4B
:1009A000E859FF4FA591B4918C91D82391E080E054
:1009B00009F490E0C92FD82FE1E080914A0181111C
:1009C000E0E0E195F0E0E95CFE4F848980680E94F8
:1009D00038028091280190912901B8010E94E40712
:1009E0009093290180932801C130D10559F42091B9
:1009F000260130912701232B29F401969093290198
:100A00008093280180912A0190912B01A0912C01C3
:100A1000B0912D01A3019201281B390B4A0B5B0BEE
:100A2000DA01C901843F9140A105B105E8F0809148
:100A3000280190912901892BA9F50E943E0288E1A5
:100A400091E00E94510142E0C701B6010E94ED020F
:100A50008FE191E00E94510140922A0150922B01B6
:100A600060922C0170922D0120E030E048E851E4C2
:100A7000C701B6010E94150687FF2EC00E944501DE
:100A800061E089E00E94B500D0932701C093260160
:100A9000A114B10409F431CF0E9400002ECFD0E0A0
:100AA000C0E08ACF0E943E0288E191E00E9451019D
:100AB00026E636E646EE5FE3C701B6010E947207FE
:100AC00020E030E040E052E40E94A90542E00E94AC
:100AD000ED0282E291E0BECF20E030E048E851E450
:100AE000C701B6010E946D0787FD0FC020E030E00E
:100AF00040EF51E4C701B6010E94150618162CF00C
:100B00000E94450161E08AE0BDCF0E94450161E09D
:100B10008BE0B8CFE7E3F1E01382128284E091E04A
:100B20009183808387E084838FEF858386E086834B
:100B300085E0878384E0808783E0818782E0828705
:100B40001386148615861686178681E00C94460255
:100B50005058BB27AA270E94C0050C9433070E9457
:100B6000250738F00E942C0720F039F49F3F19F434
:100B700026F40C9422070EF4E095E7FB0C941C0776
:100B8000E92F0E94440758F3BA17620773078407D6
:100B9000950720F079F4A6F50C9466070EF4E0951D
:100BA0000B2EBA2FA02D0B01B90190010C01CA0127
:100BB000A0011124FF27591B99F0593F50F4503ED2
:100BC00068F11A16F040A22F232F342F4427585FC4
:100BD000F3CF469537952795A795F0405395C9F7DC
:100BE0007EF41F16BA0B620B730B840BBAF0915094
:100BF000A1F0FF0FBB1F661F771F881FC2F70EC033
:100C0000BA0F621F731F841F48F487957795679505
:100C1000B795F7959E3F08F0B0CF9395880F08F0F1
:100C20009927EE0F9795879508950E94F80608F486
:100C300081E008950E942E060C9433070E942C0731
:100C400058F00E94250740F029F45F3F29F00C94EA
:100C50001C0751110C9467070C9422070E9444074B
:100C600068F39923B1F3552391F3951B550BBB27DB
:100C7000AA2762177307840738F09F5F5F4F220F20
:100C8000331F441FAA1FA9F335D00E2E3AF0E0E817
:100C900032D091505040E695001CCAF72BD0FE2F61
:100CA00029D0660F771F881FBB1F261737074807F5
:100CB000AB07B0E809F0BB0B802DBF01FF279358AD
:100CC0005F4F3AF09E3F510578F00C941C070C944E
:100CD00067075F3FE4F3983ED4F386957795679571
:100CE000B795F7959F5FC9F7880F911D96958795E2
:100CF00097F90895E1E0660F771F881FBB1F621701
:100D000073078407BA0720F0621B730B840BBA0BBE
:100D1000EE1F88F7E09508950E944C0788F09F57D2
:100D200098F0B92F9927B751B0F0E1F0660F771F0F
:100D3000881F991F1AF0BA95C9F714C0B13091F005
:100D40000E946607B1E008950C946607672F782F1C
:100D50008827B85F39F0B93FCCF3869577956795CA
:100D6000B395D9F73EF490958095709561957F4F36
:100D70008F4F9F4F0895E89409C097FB3EF49095DC
:100D80008095709561957F4F8F4F9F4F9923A9F064
:100D9000F92F96E9BB279395F695879577956795F3
:100DA000B795F111F8CFFAF4BB0F11F460FF1BC037
:100DB0006F5F7F4F8F4F9F4F16C0882311F096E9CA
:100DC00011C0772321F09EE8872F762F05C0662378
:100DD00071F096E8862F70E060E02AF09A95660F31
:100DE000771F881FDAF7880F9695879597F90895EA
:100DF000990F0008550FAA0BE0E8FEEF161617062C
:100E0000E807F907C0F012161306E407F50798F093
:100E1000621B730B840B950B39F40A2661F0232BAC
:100E2000242B252B21F408950A2609F4A140A69528
:100E30008FEF811D811D089597F99F6780E870E00D
:100E400060E008959FEF80EC089500240A94161640
:100E5000170618060906089500240A9412161306A8
:100E6000140605060895092E0394000C11F4882336
:100E700052F0BB0F40F4BF2B11F460FF04C06F5F52
:100E80007F4F8F4F9F4F089557FD9058440F551F28
:100E900059F05F3F71F04795880F97FB991F61F0FC
:100EA0009F3F79F087950895121613061406551F73
:100EB000F2CF4695F1DF08C0161617061806991FDF
:100EC000F1CF86957105610508940895E894BB27D4
:100ED00066277727CB0197F908950E94F80608F452
:100EE0008FEF08950E9485070C9433070E94250711
:100EF00038F00E942C0720F0952311F00C941C0769
:100F00000C94220711240C9467070E94440770F385
:100F1000959FC1F3950F50E0551F629FF001729F9E
:100F2000BB27F00DB11D639FAA27F00DB11DAA1FAD
:100F3000649F6627B00DA11D661F829F2227B00DFA
:100F4000A11D621F739FB00DA11D621F839FA00D85
:100F5000611D221F749F3327A00D611D231F849FD5
:100F6000600D211D822F762F6A2F11249F5750402C
:100F70009AF0F1F088234AF0EE0FFF1FBB1F661FA7
:100F8000771F881F91505040A9F79E3F510580F070
:100F90000C941C070C9467075F3FE4F3983ED4F36E
:100FA000869577956795B795F795E7959F5FC1F714
:100FB000FE2B880F911D9695879597F908950E94AD
:100FC000F806880B990B089597FB072E16F40094EA
:100FD00007D077FD09D00E941A0807FC05D03EF41F
:100FE000909581959F4F0895709561957F4F0895D5
:100FF000A1E21A2EAA1BBB1BFD010DC0AA1FBB1F1D
:10100000EE1FFF1FA217B307E407F50720F0A21B8E
:10101000B30BE40BF50B661F771F881F991F1A94FB
:1010200069F760957095809590959B01AC01BD0125
:10103000CF010895AA1BBB1B51E107C0AA1FBB1F0C
:10104000A617B70710F0A61BB70B881F991F5A9554
:10105000A9F780959095BC01CD010895EE0FFF1F73
:101060000590F491E02D0994F894FFCF0000000062
:10107000E7021401420141016E616E00696E660073
:101080006F76660054656D703A200020430020465C
:0210900000005E
:107E0000112484B714BE81FFF0D085E080938100F7
:107E100082E08093C00088E18093C10086E0809377
:107E2000C20080E18093C4008EE0C9D0259A86E02C
:107E300020E33CEF91E0309385002093840096BBD3
:107E4000B09BFECF1D9AA8958150A9F7CC24DD24C4
:107E500088248394B5E0AB2EA1E19A2EF3E0BF2EE7
:107E6000A2D0813461F49FD0082FAFD0023811F036
:107E7000013811F484E001C083E08DD089C08234E0
:107E800011F484E103C0853419F485E0A6D080C0E4
:107E9000853579F488D0E82EFF2485D0082F10E0AE
:107EA000102F00270E291F29000F111F8ED06801E7
:107EB0006FC0863521F484E090D080E0DECF843638
:107EC00009F040C070D06FD0082F6DD080E0C81688
:107ED00080E7D80618F4F601B7BEE895C0E0D1E017
:107EE00062D089930C17E1F7F0E0CF16F0E7DF06D8
:107EF00018F0F601B7BEE89568D007B600FCFDCFD4
:107F0000A601A0E0B1E02C9130E011968C91119780
:107F100090E0982F8827822B932B1296FA010C0160
:107F200087BEE89511244E5F5F4FF1E0A038BF0790
:107F300051F7F601A7BEE89507B600FCFDCF97BE46
:107F4000E89526C08437B1F42ED02DD0F82E2BD052
:107F50003CD0F601EF2C8F010F5F1F4F84911BD097
:107F6000EA94F801C1F70894C11CD11CFA94CF0C13
:107F7000D11C0EC0853739F428D08EE10CD085E9AC
:107F80000AD08FE07ACF813511F488E018D01DD067
:107F900080E101D065CF982F8091C00085FFFCCF94
:107FA0009093C60008958091C00087FFFCCF809118
:107FB000C00084FD01C0A8958091C6000895E0E648
:107FC000F0E098E1908380830895EDDF803219F02E
:107FD00088E0F5DFFFCF84E1DECF1F93182FE3DFCA
:107FE0001150E9F7F2DF1F91089580E0E8DFEE27F6
:047FF000FF270994CA
:027FFE00040479
:00000001FF
