:100000000C945D000C9485000C9485000C94850084
:100010000C9485000C9485000C9485000C9485004C
:100020000C9485000C9485000C9485000C9485003C
:100030000C9485000C9485000C9485000C9485002C
:100040000C9483020C9485000C9485000C9485001C
:100050000C9485000C9485000C9485000C9485000C
:100060000C9485000C94850000000008000201003B
:100070000003040700000000000000000000000072
:10008000250028002B0000000000240027002A0083
:10009000040404040404040402020202020203032E
:1000A0000303030301020408102040800102040836
:1000B0001020010204081020930311241FBECFEF6B
:1000C000D8E0DEBFCDBF11E0A0E0B1E0E2E7F7E0AD
:1000D00002C005900D92A434B107D9F721E0A4E441
:1000E000B1E001C01D92A936B207E1F710E0CDE5FD
:1000F000D0E004C02197FE010E94B103CC35D107A6
:10010000C9F70E94CD020C94B7030C94000090E054
:10011000FC01EC55FF4F249180579F4FFC018491C7
:10012000882399F090E0880F991FFC01EA57FF4F50
:10013000A591B491FC01E458FF4F859194918FB73C
:10014000F894EC91E22BEC938FBF089590E0FC01C2
:10015000E859FF4F2491FC01EC55FF4F3491FC010D
:10016000E057FF4FE491EE23C9F0222339F023300A
:1001700001F1A8F4213019F1223029F1F0E0EE0F5D
:10018000FF1FE458FF4FA591B4918FB7F894EC91FD
:10019000611126C030953E233C938FBF08952730D0
:1001A000A9F02830C9F0243049F7809180008F7D74
:1001B00003C0809180008F7780938000DFCF84B56B
:1001C0008F7784BDDBCF84B58F7DFBCF8091B0006E
:1001D0008F778093B000D2CF8091B0008F7DF9CF20
:1001E0003E2BDACFAF92BF92CF92DF92EF92FF9287
:1001F0000F931F93CF93DF936C017B018B01040F4F
:10020000151FEB015E01AE18BF08C017D10759F0EA
:100210006991D601ED91FC910190F081E02DC6012C
:100220000995892B79F7C501DF91CF911F910F9126
:10023000FF90EF90DF90CF90BF90AF90089508951A
:1002400090E080E00895CF93DF93EC0160E08E8131
:100250000E94A60061E08E810E94A60060E08E816F
:100260000E94A6008BE891E00197F1F7DF91CF9112
:100270000895CF92DF92EF92FF920F931F93CF9347
:10028000DF936C017C0187E0E80EF11CD0E0C0E058
:10029000062F10E0B8010C2E02C0759567950A94E0
:1002A000E2F76170F70181917F010E94A60021961B
:1002B000C430D10579F7C601DF91CF911F910F911D
:1002C000FF90EF90DF90CF900C942301CF92DF92BC
:1002D000EF92FF920F931F93CF93DF93EC01F62ED3
:1002E000642F8C810E94A6008D818F3F19F060E001
:1002F0000E94A6000F2D10E08F8584FF25C06E019F
:1003000087E0C80ED11CF12CE12CB8010E2C02C0E4
:10031000759567950A94E2F76170F60181916F0116
:100320000E94A600FFEFEF1AFF0A88E0E816F1042A
:1003300061F7CE01DF91CF911F910F91FF90EF9068
:10034000DF90CF900C942301B80184E075956795F8
:100350008A95E1F7CE010E9439016F2DCE01DF9120
:10036000CF911F910F91FF90EF90DF90CF900C9461
:10037000390140E0682F81E591E00C946601CF934C
:10038000DF93823029F4909160019860909360012E
:10039000809364011092650180E48093660180E19E
:1003A0008093670180E580936801809155010E94E8
:1003B0008700809156018F3F11F00E948700809145
:1003C00057010E948700C1E5D1E09E0121553140CF
:1003D0008091600184FD0AC084E090E02196281796
:1003E00039073CF48E810E948700EFCF88E090E0CF
:1003F000F5CF8BE39DE00197F1F760E08091550127
:100400000E94A60060E0809157010E94A6008091A2
:1004100056018F3F19F060E00E94A60080916001B4
:1004200084FD39C063E081E591E00E943901CBE4AD
:10043000D6E4CE010197F1F763E081E591E00E94F7
:1004400039012197F1F763E081E591E00E943901DC
:1004500083E592E00197F1F762E081E591E00E9487
:1004600039018091600180620E94B90184E080932B
:1004700061018CE00E94B90181E00E94B9018BE327
:100480009FE10197F1F782E08093620186E0DF91BE
:10049000CF910C94B90180620E94B9018BE496E47B
:1004A0000197F1F78091600180620E94B90183E5B4
:1004B00092E00197F1F78091600180620E94B9019A
:1004C000D0CF41E00E94660181E090E008950F9353
:1004D0001F93CF93DF938B0128E0829FC0011124EB
:1004E00080640E94B901E801085F1F4F699181E5AE
:1004F00091E00E946102C017D107C1F7DF91CF914F
:100500001F910F9108951F920F920FB60F92112411
:100510002F933F938F939F93AF93BF9380914D0100
:1005200090914E01A0914F01B091500130914C013A
:1005300023E0230F2D3758F50196A11DB11D2093FF
:100540004C0180934D0190934E01A0934F01B093C5
:1005500050018091480190914901A0914A01B091C8
:100560004B010196A11DB11D809348019093490153
:10057000A0934A01B0934B01BF91AF919F918F918E
:100580003F912F910F900FBE0F901F90189526E866
:10059000230F0296A11DB11DD2CF789484B582603D
:1005A00084BD84B5816084BD85B5826085BD85B517
:1005B000816085BD80916E00816080936E00109295
:1005C0008100809181008260809381008091810010
:1005D00081608093810080918000816080938000A1
:1005E0008091B10084608093B1008091B0008160FF
:1005F0008093B00080917A00846080937A0080912B
:100600007A00826080937A0080917A008160809382
:100610007A0080917A00806880937A001092C100FD
:1006200082E00E94BF0160E371E080E00E94670207
:1006300068E271E081E00E94670260E271E082E0BE
:100640000E94670268E171E083E00E94670260E156
:1006500071E084E00E94670268E071E085E00E943A
:10066000670260E071E086E00E9467020BE31FE131
:10067000C0E0D0E08FB7F894C0904D01D0904E010B
:10068000E0904F01F09050018FBFC114D104E104FC
:10069000F10441F410924401109245011092460178
:1006A000109247018091440190914501A09146012B
:1006B000B0914701A7019601281B390B4A0B5B0B30
:1006C000DA01C901843F9140A105B10530F181E013
:1006D0000E94B901C8010197F1F7B12CE1E08091C6
:1006E00064018111E0E0E195F0E0EF5AFE4F84896A
:1006F0008B0D80680E94B9016B2D81E591E00E940D
:100700006102B39447E0B412E9CFC0924401D092A1
:100710004501E0924601F0924701209709F4AACFE3
:100720000E940000A7CFE1E5F1E0138212828CE382
:1007300091E09183808387E084838FEF858386E0D7
:10074000868385E0878384E0808783E0818782E0F9
:1007500082871386148615861686178681E00C9488
:10076000BF01EE0FFF1F0590F491E02D0994F8945E
:02077000FFCFB9
:100772000301121212120C0003010E1111110E00CC
:1007820004110E1111110E00040A1F101F101F0078
:100792000E09091D09090E000411040A111511118F
:1007A200110400040A151111000000006102F20098
:0407B20020011F0102
:00000001FF
