:100000000C9462000C948A000C948A000C948A0070
:100010000C948A000C948A000C948A000C948A0038
:100020000C948A000C948A000C948A000C948A0028
:100030000C948A000C948A000C948A000C948A0018
:100040000C94E8030C948A000C948A000C948A00A7
:100050000C948A000C948A000C948A000C948A00F8
:100060000C948A000C948A000000000024002700F1
:100070002A0000000000250028002B0000000000DE
:1000800023002600290004040404040404040202DA
:100090000202020203030303030301020408102007
:1000A0004080010204081020010204081020000012
:1000B0000008000201000003040700000000000027
:1000C0000000560511241FBECFEFD8E0DEBFCDBF24
:1000D00011E0A0E0B1E0E4EBFFE002C005900D927A
:1000E000A632B107D9F721E0A6E2B1E001C01D9226
:1000F000A135B207E1F710E0C2E6D0E004C02197D5
:10010000FE010E94D207C136D107C9F70E9432040E
:100110000C94D8070C940000833081F028F48130CF
:1001200099F08230A9F008958730A9F08830C9F09D
:100130008430B1F4809180008F7D03C08091800075
:100140008F7780938000089584B58F7784BD08955C
:1001500084B58F7DFBCF8091B0008F778093B00006
:1001600008958091B0008F7DF9CFCF93DF93282F32
:1001700030E0F901E255FF4F8491F901E656FF4F57
:10018000D491F901EA57FF4FC491CC23A1F081111A
:100190000E948C00EC2FF0E0EE0FFF1FE458FF4FA1
:1001A000A591B491EC91ED2381E090E009F480E019
:1001B000DF91CF91089580E090E0FACF1F93CF9325
:1001C000DF93282F30E0F901E255FF4F8491F901C8
:1001D000E656FF4FD491F901EA57FF4FC491CC2363
:1001E000A9F0162F81110E948C00EC2FF0E0EE0F89
:1001F000FF1FEE58FF4FA591B4918FB7F894EC9183
:10020000111108C0D095DE23DC938FBFDF91CF9111
:100210001F910895DE2BF8CFCF93DF9390E0FC0180
:10022000E656FF4F24918A579F4FFC018491882303
:10023000D1F090E0880F991FFC01E859FF4FA5917C
:10024000B491FC01EE58FF4FC591D49161110EC0DD
:100250009FB7F8948C91E22FE0958E238C932881A0
:10026000E223E8839FBFDF91CF9108958FB7F89481
:10027000EC91E22BEC938FBFF6CFAF92BF92CF926F
:10028000DF92EF92FF920F931F93CF93DF936C0156
:100290007B018B01040F151FEB015E01AE18BF0837
:1002A000C017D10759F06991D601ED91FC910190E9
:1002B000F081E02DC6010995892B79F7C501DF9101
:1002C000CF911F910F91FF90EF90DF90CF90BF9053
:1002D000AF900895089590E080E00895FC010190AA
:1002E0000020E9F73197AF01481B590BBC0189E3A6
:1002F00091E00C943D018F929F92AF92BF920F9329
:100300001F93CF93DF93CDB7DEB7A1970FB6F894C5
:10031000DEBF0FBECDBF19A2423008F44AE08E0105
:100320000F5D1F4F842E912CB12CA12CA50194019F
:100330000E94B007E62FB901CA01EA30F4F4E05D8B
:10034000D801EE938D01232B242B252B79F790E0F8
:1003500080E0109719F0CD010E946E01A1960FB6B2
:10036000F894DEBF0FBECDBFDF91CF911F910F91EB
:10037000BF90AF909F908F900895E95CE1CFCF93AD
:10038000DF93EC0160E08E810E94DE0061E08E81EF
:100390000E94DE0060E08E810E94DE008BE891E02A
:1003A0000197F1F7DF91CF910895CF92DF92EF920D
:1003B000FF920F931F93CF93DF936C017C0187E033
:1003C000E80EF11CD0E0C0E0062F10E0B8010C2EC2
:1003D00002C0759567950A94E2F76170F701819103
:1003E0007F010E94DE002196C430D10579F7C60155
:1003F000DF91CF911F910F91FF90EF90DF90CF9001
:100400000C94BF01CF92DF92EF92FF920F931F9354
:10041000CF93DF93EC01F62E642F8C810E94DE00D7
:100420008D818F3F19F060E00E94DE000F2D10E0FB
:100430008F8584FF25C06E0187E0C80ED11CF12C8A
:10044000E12CB8010E2C02C0759567950A94E2F76D
:100450006170F60181916F010E94DE00FFEFEF1ADB
:10046000FF0A88E0E816F10461F7CE01DF91CF9131
:100470001F910F91FF90EF90DF90CF900C94BF01F0
:10048000B80184E0759567958A95E1F7CE010E94E1
:10049000D5016F2DCE01DF91CF911F910F91FF906C
:1004A000EF90DF90CF900C94D50140E0682F89E366
:1004B00091E00C94020281E00E9455028BE39FE1DF
:1004C0000197F1F70895CF93DF93823029F490914B
:1004D000480198609093480180934C0110924D011F
:1004E00080E480934E0180E180934F0180E580930A
:1004F000500161E080913D010E940C0180913E011C
:100500008F3F19F061E00E940C0161E080913F0192
:100510000E940C01C9E3D1E09E0129533140809132
:10052000480184FD0BC084E090E02196281739072C
:1005300044F461E08E810E940C01EECF88E090E0EF
:10054000F4CF8BE39DE00197F1F760E080913D01EE
:100550000E94DE0060E080913F010E94DE008091F9
:100560003E018F3F19F060E00E94DE00809148015B
:1005700084FD34C063E089E391E00E94D501CBE4BF
:10058000D6E4CE010197F1F763E089E391E00E94A0
:10059000D5012197F1F763E089E391E00E94D5014D
:1005A00083E592E00197F1F762E089E391E00E9430
:1005B000D5018091480180620E94550284E08093B9
:1005C00049018CE00E9455020E945B0282E0809308
:1005D0004A0186E0DF91CF910C94550280620E941F
:1005E00055028BE496E40197F1F78091480180620F
:1005F0000E94550283E592E00197F1F7809148014E
:1006000080620E945502D5CF41E00E94020281E043
:1006100090E008954F925F926F927F928F929F9297
:10062000AF92BF92CF92DF92EF92FF920F931F9300
:10063000CF936B017C01742EAC019B010E94AB0730
:10064000882399F08CE091E0CF911F910F91FF905A
:10065000EF90DF90CF90BF90AF909F908F907F9062
:100660006F905F904F900C946E0146015701E89493
:10067000B7F82FEF3FEF4FE75FE7C501B4010E94E6
:10068000AB0781110DC02FEF3FEF4FE75FE7C501CB
:10069000B4010E94E10518161CF480E191E0D4CF6A
:1006A0002FEF3FEF4FE75FE4C701B6010E94390724
:1006B00018161CF484E191E0C7CF2FEF3FEF4FE70E
:1006C0005FECC701B6010E94E10587FDF3CF20E092
:1006D00030E0A901C701B6010E94E10510E000E089
:1006E00087FF0CC041E06DE289E391E00E940202C5
:1006F000F7FAF094F7F8F09401E010E0C0E060E061
:1007000070E080E09FE37C1641F020E030E040E2C2
:1007100051E40E94E605CF5FF6CFA70196010E9443
:1007200075054B015C010E9458062B013C014AE013
:100730000E947B01080F191FCC23C9F1C301B2012C
:100740000E9487069B01AC01C501B4010E9474059B
:100750004B015C0141E06EE289E391E00E940202FC
:100760000F5F1F4FC15018F120E030E040E251E42C
:10077000C501B4010E943E072B013C010E945806AE
:100780004B01B12CA12C4AE0C501B4010E947B01B0
:10079000080F191FC501B4010E9487069B01AC0117
:1007A000C301B2010E9474054B015C01DBCFC8019B
:1007B000CF911F910F91FF90EF90DF90CF90BF905E
:1007C000AF909F908F907F906F905F904F90089523
:1007D0001F920F920FB60F9211242F933F938F9376
:1007E0009F93AF93BF938091350190913601A09173
:1007F0003701B09138013091340123E0230F2D37B8
:1008000058F50196A11DB11D209334018093350147
:1008100090933601A0933701B09338018091300155
:1008200090913101A0913201B09133010196A11D47
:10083000B11D8093300190933101A0933201B093A8
:100840003301BF91AF919F918F913F912F910F9065
:100850000FBE0F901F90189526E8230F0296A11D3A
:10086000B11DD2CF789484B5826084BD84B5816097
:1008700084BD85B5826085BD85B5816085BD80916B
:100880006E00816080936E001092810080918100E3
:1008900082608093810080918100816080938100DB
:1008A000809180008160809380008091B10084609D
:1008B0008093B1008091B00081608093B0008091FE
:1008C0007A00846080937A0080917A0082608093BD
:1008D0007A0080917A00816080937A0080917A001A
:1008E000806880937A001092C10082E00E946302C7
:1008F00060E08EE00E940C0160E088E00E940C0144
:1009000060E089E00E940C0180E4382E90E0C92E5E
:1009100090E0D92E8FB7F8948090350190903601F1
:10092000A0903701B09038018FBF81149104A104C9
:10093000B10441F410922C0110922D0110922E015D
:1009400010922F0130927C0080917A008064809315
:100950007A0080917A0086FDFCCF0091780010919A
:10096000790089E00E94B5007C0188E00E94B50012
:10097000EC01E1E080914C018111E0E0E195F0E0D3
:10098000E75CFE4F848980680E94550221E0E216F0
:10099000F10451F480912A0190912B01892B21F4CB
:1009A0001092290110922801C130D10551F4809193
:1009B000260190912701892B21F4D0932901C0931E
:1009C000280180912C0190912D01A0912E01B091D0
:1009D0002F01A5019401281B390B4A0B5B0BDA018F
:1009E000C901843F9140A105B105B8F1B801110FCB
:1009F000880B990B0E94890620E030E040EA50E421
:100A00000E943E0720E030E040E85AE30E943E07A3
:100A100020E030E048EC52E40E943E072B013C010C
:100A20008091280190912901892B31F50E945B0268
:100A300088E191E00E946E0142E0C301B2010E9490
:100A40000A038FE191E00E946E0180922C01909246
:100A50002D01A0922E01B0922F01D0932701C093B7
:100A60002601F0922B01E0922A01C114D10409F46D
:100A700051CF0E9400004ECF0E945B0288E191E0BE
:100A80000E946E0126E636E646EE5FE3C301B20140
:100A90000E943E0720E030E040E052E40E947505ED
:100AA00042E00E940A0382E291E0CDCFE9E3F1E067
:100AB0001382128284E091E09183808387E08483B3
:100AC0008FEF858386E0868385E0878384E0808757
:100AD00083E0818782E082871386148615861686D6
:100AE000178681E00C9463025058BB27AA270E9406
:100AF0008C050C94FF060E94F10638F00E94F8065F
:100B000020F039F49F3F19F426F40C94EE060EF40D
:100B1000E095E7FB0C94E806E92F0E94100758F3D4
:100B2000BA17620773078407950720F079F4A6F5D2
:100B30000C9432070EF4E0950B2EBA2FA02D0B016A
:100B4000B90190010C01CA01A0011124FF27591B12
:100B500099F0593F50F4503E68F11A16F040A22F18
:100B6000232F342F4427585FF3CF46953795279589
:100B7000A795F0405395C9F77EF41F16BA0B620B88
:100B8000730B840BBAF09150A1F0FF0FBB1F661FCF
:100B9000771F881FC2F70EC0BA0F621F731F841F12
:100BA00048F4879577956795B795F7959E3F08F038
:100BB000B0CF9395880F08F09927EE0F97958795FA
:100BC00008950E94C40608F481E008950E94FA0581
:100BD0000C94FF060E94F80658F00E94F10640F0BF
:100BE00029F45F3F29F00C94E80651110C94330767
:100BF0000C94EE060E94100768F39923B1F3552375
:100C000091F3951B550BBB27AA276217730784071F
:100C100038F09F5F5F4F220F331F441FAA1FA9F3B5
:100C200035D00E2E3AF0E0E832D091505040E695A3
:100C3000001CCAF72BD0FE2F29D0660F771F881F04
:100C4000BB1F261737074807AB07B0E809F0BB0BF7
:100C5000802DBF01FF2793585F4F3AF09E3F51050B
:100C600078F00C94E8060C9433075F3FE4F3983E69
:100C7000D4F3869577956795B795F7959F5FC9F7F4
:100C8000880F911D9695879597F90895E1E0660F75
:100C9000771F881FBB1F621773078407BA0720F0EE
:100CA000621B730B840BBA0BEE1F88F7E095089557
:100CB0000E94180788F09F5798F0B92F9927B751CD
:100CC000B0F0E1F0660F771F881F991F1AF0BA95F0
:100CD000C9F714C0B13091F00E943207B1E0089515
:100CE0000C943207672F782F8827B85F39F0B93F07
:100CF000CCF3869577956795B395D9F73EF49095A3
:100D00008095709561957F4F8F4F9F4F0895E89420
:100D100009C097FB3EF490958095709561957F4F43
:100D20008F4F9F4F9923A9F0F92F96E9BB279395F1
:100D3000F695879577956795B795F111F8CFFAF401
:100D4000BB0F11F460FF1BC06F5F7F4F8F4F9F4F32
:100D500016C0882311F096E911C0772321F09EE890
:100D6000872F762F05C0662371F096E8862F70E0F6
:100D700060E02AF09A95660F771F881FDAF7880FD0
:100D80009695879597F90895990F0008550FAA0B26
:100D9000E0E8FEEF16161706E807F907C0F012168E
:100DA0001306E407F50798F0621B730B840B950B91
:100DB00039F40A2661F0232B242B252B21F40895E6
:100DC0000A2609F4A140A6958FEF811D811D089583
:100DD00097F99F6780E870E060E008959FEF80ECEE
:100DE000089500240A941616170618060906089591
:100DF00000240A9412161306140605060895092EF7
:100E00000394000C11F4882352F0BB0F40F4BF2B65
:100E100011F460FF04C06F5F7F4F8F4F9F4F0895A5
:100E200057FD9058440F551F59F05F3F71F047959B
:100E3000880F97FB991F61F09F3F79F08795089580
:100E4000121613061406551FF2CF4695F1DF08C09F
:100E5000161617061806991FF1CF869571056105BC
:100E600008940895E894BB2766277727CB0197F964
:100E700008950E94C40608F48FEF08950E94510758
:100E80000C94FF060E94F10638F00E94F80620F04C
:100E9000952311F00C94E8060C94EE0611240C94A2
:100EA00033070E94100770F3959FC1F3950F50E030
:100EB000551F629FF001729FBB27F00DB11D639F0C
:100EC000AA27F00DB11DAA1F649F6627B00DA11DB2
:100ED000661F829F2227B00DA11D621F739FB00D58
:100EE000A11D621F839FA00D611D221F749F3327C8
:100EF000A00D611D231F849F600D211D822F762F61
:100F00006A2F11249F5750409AF0F1F088234AF03D
:100F1000EE0FFF1FBB1F661F771F881F91505040A9
:100F2000A9F79E3F510580F00C94E8060C94330716
:100F30005F3FE4F3983ED4F3869577956795B79530
:100F4000F795E7959F5FC1F7FE2B880F911D96954A
:100F5000879597F908950E94C406880B990B089508
:100F6000A1E21A2EAA1BBB1BFD010DC0AA1FBB1FAD
:100F7000EE1FFF1FA217B307E407F50720F0A21B1F
:100F8000B30BE40BF50B661F771F881F991F1A948C
:100F900069F760957095809590959B01AC01BD01B6
:100FA000CF010895EE0FFF1F0590F491E02D0994F5
:040FB000F894FFCFE3
:100FB4000000000004033D016B016A016E616E00D4
:100FC400696E66006F76660054656D703A20002085
:060FD4004300204600006E
:00000001FF
