:100000000C9462000C948A000C948A000C948A0070
:100010000C948A000C948A000C948A000C948A0038
:100020000C948A000C948A000C948A000C948A0028
:100030000C948A000C948A000C948A000C948A0018
:100040000C94F1020C948A000C948A000C948A009F
:100050000C948A000C948A000C948A000C948A00F8
:100060000C948A000C948A000000000024002700F1
:100070002A0000000000250028002B0000000000DE
:1000800023002600290004040404040404040202DA
:100090000202020203030303030301020408102007
:1000A0004080010204081020010204081020000012
:1000B0000008000201000003040700000000000027
:1000C0000000020511241FBECFEFD8E0DEBFCDBF78
:1000D00011E0A0E0B1E0E0E5FAE002C005900D9289
:1000E000A434B107D9F721E0A4E4B1E001C01D9226
:1000F000A237B207E1F710E0C2E6D0E004C02197D2
:10010000FE010E942005C136D107C9F70E943B03BA
:100110000C9426050C940000833081F028F4813083
:1001200099F08230A9F008958730A9F08830C9F09D
:100130008430B1F4809180008F7D03C08091800075
:100140008F7780938000089584B58F7784BD08955C
:1001500084B58F7DFBCF8091B0008F778093B00006
:1001600008958091B0008F7DF9CFCF93DF93282F32
:1001700030E0F901E255FF4F8491F901E656FF4F57
:10018000D491F901EA57FF4FC491CC23A1F081111A
:100190000E948C00EC2FF0E0EE0FFF1FE458FF4FA1
:1001A000A591B491EC91ED2381E090E009F480E019
:1001B000DF91CF91089580E090E0FACF1F93CF9325
:1001C000DF93282F30E0F901E255FF4F8491F901C8
:1001D000E656FF4FD491F901EA57FF4FC491CC2363
:1001E000A9F0162F81110E948C00EC2FF0E0EE0F89
:1001F000FF1FEE58FF4FA591B4918FB7F894EC9183
:10020000111108C0D095DE23DC938FBFDF91CF9111
:100210001F910895DE2BF8CFCF93DF9390E0FC0180
:10022000E656FF4F24918A579F4FFC018491882303
:10023000D1F090E0880F991FFC01E859FF4FA5917C
:10024000B491FC01EE58FF4FC591D49161110EC0DD
:100250009FB7F8948C91E22FE0958E238C932881A0
:10026000E223E8839FBFDF91CF9108958FB7F89481
:10027000EC91E22BEC938FBFF6CFAF92BF92CF926F
:10028000DF92EF92FF920F931F93CF93DF936C0156
:100290007B018B01040F151FEB015E01AE18BF0837
:1002A000C017D10759F06991D601ED91FC910190E9
:1002B000F081E02DC6010995892B79F7C501DF9101
:1002C000CF911F910F91FF90EF90DF90CF90BF9053
:1002D000AF900895089590E080E00895FC010190AA
:1002E0000020E9F73197AF01481B590BBC018AE5A3
:1002F00091E00C943D01CF93DF93EC0160E08E819F
:100300000E94DE0061E08E810E94DE0060E08E814E
:100310000E94DE008BE891E00197F1F7DF91CF9129
:100320000895CF92DF92EF92FF920F931F93CF9396
:10033000DF936C017C0187E0E80EF11CD0E0C0E0A7
:10034000062F10E0B8010C2E02C0759567950A942F
:10035000E2F76170F70181917F010E94DE00219632
:10036000C430D10579F7C601DF91CF911F910F916C
:10037000FF90EF90DF90CF900C947B01CF92DF92B3
:10038000EF92FF920F931F93CF93DF93EC01F62E22
:10039000642F8C810E94DE008D818F3F19F060E018
:1003A0000E94DE000F2D10E08F8584FF25C06E01B6
:1003B00087E0C80ED11CF12CE12CB8010E2C02C034
:1003C000759567950A94E2F76170F60181916F0166
:1003D0000E94DE00FFEFEF1AFF0A88E0E816F10442
:1003E00061F7CE01DF91CF911F910F91FF90EF90B8
:1003F000DF90CF900C947B01B80184E075956795F0
:100400008A95E1F7CE010E9491016F2DCE01DF9117
:10041000CF911F910F91FF90EF90DF90CF900C94B0
:10042000910140E0682F8AE591E00C94BE01CF93E2
:10043000DF93823029F4909169019860909369016B
:1004400080936D0110926E0180E480936F0180E1D2
:100450008093700180E58093710161E080915E017D
:100460000E940C0180915F018F3F19F061E00E94B2
:100470000C0161E0809160010E940C01CAE5D1E0AD
:100480009E012A5531408091690184FD0BC084E0B2
:1004900090E021962817390744F461E08E810E948C
:1004A0000C01EECF88E090E0F4CF8BE39DE0019764
:1004B000F1F760E080915E010E94DE0060E08091D3
:1004C00060010E94DE0080915F018F3F19F060E0C3
:1004D0000E94DE008091690184FD39C063E08AE5F5
:1004E00091E00E949101CBE4D6E4CE010197F1F7AF
:1004F00063E08AE591E00E9491012197F1F763E0C2
:100500008AE591E00E94910183E592E00197F1F77D
:1005100062E08AE591E00E94910180916901806228
:100520000E94110284E080936A018CE00E94110213
:1005300081E00E9411028BE39FE10197F1F782E0D5
:1005400080936B0186E0DF91CF910C941102806261
:100550000E9411028BE496E40197F1F78091690102
:1005600080620E94110283E592E00197F1F7809189
:10057000690180620E941102D0CF643008F063E00C
:1005800090916D01691710F06FEF690FE62FF0E0A1
:10059000E65AFE4F9489890F80680C94110241E05D
:1005A0000E94BE0181E090E008950F931F93CF93C6
:1005B000DF938B0128E0829FC001112480640E9498
:1005C0001102E801085F1F4F69918AE591E00E94DE
:1005D000CF02C017D107C1F7DF91CF911F910F91C3
:1005E00008951F920F920FB60F9211242F933F93ED
:1005F0008F939F93AF93BF93809156019091570132
:10060000A0915801B09159013091550123E0230F79
:100610002D3758F50196A11DB11D209355018093EA
:10062000560190935701A0935801B09359018091BE
:10063000510190915201A0915301B0915401019642
:10064000A11DB11D8093510190935201A0935301BC
:10065000B0935401BF91AF919F918F913F912F9192
:100660000F900FBE0F901F90189526E8230F02964B
:10067000A11DB11DD2CF789484B5826084BD84B5AC
:10068000816084BD85B5826085BD85B5816085BD8D
:1006900080916E00816080936E0010928100809145
:1006A00081008260809381008091810081608093CD
:1006B0008100809180008160809380008091B100F2
:1006C00084608093B1008091B00081608093B0001D
:1006D00080917A00846080937A0080917A008260B1
:1006E00080937A0080917A00816080937A00809173
:1006F0007A00806880937A001092C10082E00E94A4
:10070000170268E271E080E00E94D50260E271E0C9
:1007100081E00E94D50268E171E082E00E94D5028A
:1007200060E171E083E00E94D50268E071E084E05E
:100730000E94D50260E071E085E00E94D50260E091
:100740008BE00E940C0160E08AE00E940C0160E0F6
:1007500088E00E940C0160E089E00E940C018BE3BC
:10076000A82E8FE1B82E90E0892E90E0992E25E6F4
:10077000722E3FE6632E8BE00E94B5006C018AE08A
:100780000E94B5007C0189E00E94B5008C0188E0E0
:100790000E94B500EC01C114D10461F580914F01B4
:1007A00090915001019731F580914C0190914D014C
:1007B00060914A0120914E01253609F0E5C001976C
:1007C00090934D0180934C010E94BD028DE391E016
:1007D0000E946E0160E08AE591E00E94CF021092D3
:1007E0004E0180914C0190914D01019690934D01E5
:1007F00080934C01E114F10461F5809148019091DE
:100800004901019731F580914C0190914D01609122
:100810004A0120914E012F3609F0BFC001979093F5
:100820004D0180934C010E94BD028DE391E00E9436
:100830006E0163E08AE591E00E94CF0210924E01C2
:1008400080914C0190914D01019690934D018093C0
:100850004C010115110561F5809146019091470108
:10086000019731F580914C0190914D0120914E01FD
:1008700060914A012F3609F099C0019790934D017C
:1008800080934C010E94BD028DE391E00E946E01B5
:1008900065E08AE591E00E94CF0210924E018091BE
:1008A0004C0190914D01019690934D0180934C0124
:1008B000209761F58091440190914501019731F5B0
:1008C00080914C0190914D0120914E0160914A011F
:1008D0002F3609F081C0019790934D0180934C0110
:1008E0000E94BD028DE391E00E946E0164E08AE502
:1008F00091E00E94CF0210924E0180914C019091A4
:100900004D01019690934D0180934C0180914C01D3
:1009100090914D0140976CF080914A0190914B016C
:1009200010924D0110924C01019690934B018093CF
:100930004A0180914A0190914B01029774F0109204
:100940004D0110924C0110924B0110924A0181E02E
:100950000E941102C5010197F1F7D0925001C09297
:100960004F01F0924901E092480110934701009332
:100970004601D0934501C09344018114910409F4C8
:10098000FACE0E940000F7CE0E94BD028CE391E0F7
:100990000E946E0170924E0124CF0E94BD028EE330
:1009A00091E00E946E0160924E014ACF253669F4B3
:1009B000019790934D0180934C010E94BD028DE3FD
:1009C00091E00E946E0161E064CF0E94BD0280E46C
:1009D00091E00E946E0161CF253669F401979093F2
:1009E0004D0180934C010E94BD028DE391E00E9475
:1009F0006E0162E07CCF0E94BD0282E491E00E9421
:100A00006E0179CFEAE5F1E01382128284E391E08E
:100A10009183808387E084838FEF858386E086835C
:100A200085E0878384E0808783E0818782E0828716
:100A30001386148615861686178681E00C94170295
:100A4000EE0FFF1F0590F491E02D0994F894FFCF6D
:100A500002040E1111110E0008040E1111110E00E6
:100A600004110E1111110E0008041F101F101F0099
:100A700002041F101F101F00040A1F101F101F0068
:100A800000000000CF023D016B016A0145004F00EC
:040A900053004600C9
:00000001FF
